{
  "address": "0xe7f1725E7734CE288F8367e1Bb143E90bb3F0512",
  "abi": [
    {
      "inputs": [
        {
          "internalType": "address",
          "name": "_nftAddress",
          "type": "address"
        },
        {
          "internalType": "uint256",
          "name": "_fee",
          "type": "uint256"
        }
      ],
      "stateMutability": "nonpayable",
      "type": "constructor"
    },
    {
      "inputs": [],
      "name": "ALERADY_RENTED_TO_SOMEONE",
      "type": "error"
    },
    {
      "inputs": [],
      "name": "ALERADY_TURNED_IN",
      "type": "error"
    },
    {
      "inputs": [],
      "name": "CANNOT_RENT_FOR_THAT_MUCH_DAYS",
      "type": "error"
    },
    {
      "inputs": [],
      "name": "CAR_NOT_LISTED",
      "type": "error"
    },
    {
      "inputs": [],
      "name": "CAR_NOT_RENTED_TO_CALLER",
      "type": "error"
    },
    {
      "inputs": [],
      "name": "LISTING_IS_IN_RENTED_STATE",
      "type": "error"
    },
    {
      "inputs": [],
      "name": "NFT_ALERADY_LISTED",
      "type": "error"
    },
    {
      "inputs": [],
      "name": "NOT_APPROVED_BY_OWNER",
      "type": "error"
    },
    {
      "inputs": [],
      "name": "NOT_RENTED_YET",
      "type": "error"
    },
    {
      "inputs": [],
      "name": "NOT_THE_BORROWER",
      "type": "error"
    },
    {
      "inputs": [],
      "name": "NOT_THE_OWNER",
      "type": "error"
    },
    {
      "inputs": [],
      "name": "NOT_TURNED_IN",
      "type": "error"
    },
    {
      "inputs": [],
      "name": "PriceMustBeAboveZero",
      "type": "error"
    },
    {
      "inputs": [],
      "name": "ZERO_PROCEEDS",
      "type": "error"
    },
    {
      "anonymous": false,
      "inputs": [
        {
          "indexed": true,
          "internalType": "address",
          "name": "seller",
          "type": "address"
        },
        {
          "indexed": true,
          "internalType": "address",
          "name": "nftAddress",
          "type": "address"
        },
        {
          "indexed": true,
          "internalType": "uint256",
          "name": "tokenId",
          "type": "uint256"
        },
        {
          "indexed": false,
          "internalType": "uint256",
          "name": "price",
          "type": "uint256"
        },
        {
          "indexed": false,
          "internalType": "uint256",
          "name": "advanceTime",
          "type": "uint256"
        }
      ],
      "name": "ItemListed",
      "type": "event"
    },
    {
      "anonymous": false,
      "inputs": [
        {
          "indexed": true,
          "internalType": "address",
          "name": "previousOwner",
          "type": "address"
        },
        {
          "indexed": true,
          "internalType": "address",
          "name": "newOwner",
          "type": "address"
        }
      ],
      "name": "OwnershipTransferred",
      "type": "event"
    },
    {
      "anonymous": false,
      "inputs": [
        {
          "indexed": true,
          "internalType": "uint256",
          "name": "_tokenId",
          "type": "uint256"
        },
        {
          "indexed": true,
          "internalType": "address",
          "name": "owner",
          "type": "address"
        }
      ],
      "name": "carDelisted",
      "type": "event"
    },
    {
      "anonymous": false,
      "inputs": [
        {
          "indexed": true,
          "internalType": "uint256",
          "name": "_tokenId",
          "type": "uint256"
        },
        {
          "indexed": true,
          "internalType": "address",
          "name": "borrower",
          "type": "address"
        },
        {
          "indexed": false,
          "internalType": "uint256",
          "name": "fine",
          "type": "uint256"
        }
      ],
      "name": "finePaid",
      "type": "event"
    },
    {
      "anonymous": false,
      "inputs": [
        {
          "indexed": true,
          "internalType": "uint256",
          "name": "_tokenId",
          "type": "uint256"
        },
        {
          "indexed": false,
          "internalType": "address",
          "name": "rentedUser",
          "type": "address"
        },
        {
          "indexed": false,
          "internalType": "uint256",
          "name": "expiryTime",
          "type": "uint256"
        }
      ],
      "name": "rentedItem",
      "type": "event"
    },
    {
      "anonymous": false,
      "inputs": [
        {
          "indexed": false,
          "internalType": "uint256",
          "name": "tokenId",
          "type": "uint256"
        },
        {
          "indexed": false,
          "internalType": "uint256",
          "name": "price",
          "type": "uint256"
        },
        {
          "indexed": false,
          "internalType": "uint256",
          "name": "maxDays",
          "type": "uint256"
        },
        {
          "indexed": false,
          "internalType": "uint256",
          "name": "advanceTime",
          "type": "uint256"
        },
        {
          "indexed": false,
          "internalType": "address",
          "name": "owner",
          "type": "address"
        }
      ],
      "name": "updatedListing",
      "type": "event"
    },
    {
      "inputs": [
        {
          "internalType": "uint256",
          "name": "_tokenId",
          "type": "uint256"
        }
      ],
      "name": "cancelListing",
      "outputs": [],
      "stateMutability": "nonpayable",
      "type": "function"
    },
    {
      "inputs": [
        {
          "internalType": "uint256",
          "name": "_tokenId",
          "type": "uint256"
        }
      ],
      "name": "getFine",
      "outputs": [
        {
          "internalType": "uint256",
          "name": "",
          "type": "uint256"
        }
      ],
      "stateMutability": "view",
      "type": "function"
    },
    {
      "inputs": [
        {
          "internalType": "uint256",
          "name": "_tokenId",
          "type": "uint256"
        }
      ],
      "name": "getListing",
      "outputs": [
        {
          "components": [
            {
              "internalType": "uint256",
              "name": "hourlyPrice",
              "type": "uint256"
            },
            {
              "internalType": "uint256",
              "name": "maxDays",
              "type": "uint256"
            },
            {
              "internalType": "address",
              "name": "owner",
              "type": "address"
            },
            {
              "internalType": "uint256",
              "name": "advanceTime",
              "type": "uint256"
            },
            {
              "internalType": "enum Escrow.Status",
              "name": "status",
              "type": "uint8"
            }
          ],
          "internalType": "struct Escrow.Listing",
          "name": "",
          "type": "tuple"
        }
      ],
      "stateMutability": "view",
      "type": "function"
    },
    {
      "inputs": [
        {
          "internalType": "uint256",
          "name": "_tokenId",
          "type": "uint256"
        },
        {
          "internalType": "uint256",
          "name": "_price",
          "type": "uint256"
        },
        {
          "internalType": "uint256",
          "name": "_maxDays",
          "type": "uint256"
        },
        {
          "internalType": "uint256",
          "name": "_advanceTime",
          "type": "uint256"
        }
      ],
      "name": "listCar",
      "outputs": [],
      "stateMutability": "nonpayable",
      "type": "function"
    },
    {
      "inputs": [],
      "name": "owner",
      "outputs": [
        {
          "internalType": "address",
          "name": "",
          "type": "address"
        }
      ],
      "stateMutability": "view",
      "type": "function"
    },
    {
      "inputs": [
        {
          "internalType": "uint256",
          "name": "_tokenId",
          "type": "uint256"
        }
      ],
      "name": "payFee",
      "outputs": [],
      "stateMutability": "payable",
      "type": "function"
    },
    {
      "inputs": [],
      "name": "renounceOwnership",
      "outputs": [],
      "stateMutability": "nonpayable",
      "type": "function"
    },
    {
      "inputs": [
        {
          "internalType": "uint256",
          "name": "_tokenId",
          "type": "uint256"
        },
        {
          "internalType": "uint256",
          "name": "_expiryTime",
          "type": "uint256"
        }
      ],
      "name": "rentCar",
      "outputs": [],
      "stateMutability": "payable",
      "type": "function"
    },
    {
      "inputs": [
        {
          "internalType": "address",
          "name": "",
          "type": "address"
        }
      ],
      "name": "s_borrowerStatus",
      "outputs": [
        {
          "internalType": "bool",
          "name": "",
          "type": "bool"
        }
      ],
      "stateMutability": "view",
      "type": "function"
    },
    {
      "inputs": [
        {
          "internalType": "address",
          "name": "",
          "type": "address"
        }
      ],
      "name": "s_ownerStatus",
      "outputs": [
        {
          "internalType": "bool",
          "name": "",
          "type": "bool"
        }
      ],
      "stateMutability": "view",
      "type": "function"
    },
    {
      "inputs": [
        {
          "internalType": "address",
          "name": "newOwner",
          "type": "address"
        }
      ],
      "name": "transferOwnership",
      "outputs": [],
      "stateMutability": "nonpayable",
      "type": "function"
    },
    {
      "inputs": [
        {
          "internalType": "uint256",
          "name": "_tokenId",
          "type": "uint256"
        }
      ],
      "name": "turnInByBorrower",
      "outputs": [],
      "stateMutability": "nonpayable",
      "type": "function"
    },
    {
      "inputs": [
        {
          "internalType": "uint256",
          "name": "_tokenId",
          "type": "uint256"
        }
      ],
      "name": "turnInByOwner",
      "outputs": [],
      "stateMutability": "nonpayable",
      "type": "function"
    },
    {
      "inputs": [
        {
          "internalType": "uint256",
          "name": "_tokenId",
          "type": "uint256"
        },
        {
          "internalType": "uint256",
          "name": "_price",
          "type": "uint256"
        },
        {
          "internalType": "uint256",
          "name": "_maxDays",
          "type": "uint256"
        },
        {
          "internalType": "uint256",
          "name": "_advanceTime",
          "type": "uint256"
        }
      ],
      "name": "updateListing",
      "outputs": [],
      "stateMutability": "nonpayable",
      "type": "function"
    },
    {
      "inputs": [],
      "name": "viewBalance",
      "outputs": [
        {
          "internalType": "uint256",
          "name": "",
          "type": "uint256"
        }
      ],
      "stateMutability": "view",
      "type": "function"
    },
    {
      "inputs": [],
      "name": "withdraw",
      "outputs": [],
      "stateMutability": "nonpayable",
      "type": "function"
    }
  ],
  "transactionHash": "0xc792ba7b6e0fa649e0cfa3d55d7138cb740447d113d832da5b0de7b26837f006",
  "args": [
    "0x5FbDB2315678afecb367f032d93F642f64180aa3",
    "10000000000000000"
  ],
  "numDeployments": 1,
  "solcInputHash": "8352fda604d1f2265fe3bd5a7f113d3e",
  "bytecode": "0x60c06040523480156200001157600080fd5b50604051620036353803806200363583398181016040528101906200003791906200020c565b620000576200004b6200009b60201b60201c565b620000a360201b60201c565b8173ffffffffffffffffffffffffffffffffffffffff1660808173ffffffffffffffffffffffffffffffffffffffff16815250508060a08181525050505062000253565b600033905090565b60008060009054906101000a900473ffffffffffffffffffffffffffffffffffffffff169050816000806101000a81548173ffffffffffffffffffffffffffffffffffffffff021916908373ffffffffffffffffffffffffffffffffffffffff1602179055508173ffffffffffffffffffffffffffffffffffffffff168173ffffffffffffffffffffffffffffffffffffffff167f8be0079c531659141344cd1fd0a4f28419497f9722a3daafe3b4186f6b6457e060405160405180910390a35050565b600080fd5b600073ffffffffffffffffffffffffffffffffffffffff82169050919050565b600062000199826200016c565b9050919050565b620001ab816200018c565b8114620001b757600080fd5b50565b600081519050620001cb81620001a0565b92915050565b6000819050919050565b620001e681620001d1565b8114620001f257600080fd5b50565b6000815190506200020681620001db565b92915050565b6000806040838503121562000226576200022562000167565b5b60006200023685828601620001ba565b92505060206200024985828601620001f5565b9150509250929050565b60805160a05161336f620002c6600039600081816114d10152611f480152600081816103a301528181610ad701528181610d08015281816112070152818161130f015281816118a401528181611ce2015281816121f0015281816123320152818161253301526125e1015261336f6000f3fe6080604052600436106100f35760003560e01c80638da5cb5b1161008a578063bfc4c57211610059578063bfc4c572146102f3578063d289ade21461031c578063e0758d5e14610338578063f2fde38b14610375576100f3565b80638da5cb5b146102465780639ca0fc0d14610271578063a4b4864b1461028d578063ab887d6d146102b6576100f3565b80633ccfd60b116100c65780633ccfd60b146101c45780633ff1e05b146101db578063715018a614610206578063899279251461021d576100f3565b8063029b0d8b146100f8578063107a274a146101355780631712ab1914610172578063305a67a81461019b575b600080fd5b34801561010457600080fd5b5061011f600480360381019061011a9190612c20565b61039e565b60405161012c9190612c5c565b60405180910390f35b34801561014157600080fd5b5061015c60048036038101906101579190612c20565b6108e5565b6040516101699190612da6565b60405180910390f35b34801561017e57600080fd5b5061019960048036038101906101949190612dc1565b6109c1565b005b3480156101a757600080fd5b506101c260048036038101906101bd9190612c20565b610d02565b005b3480156101d057600080fd5b506101d9610ff4565b005b3480156101e757600080fd5b506101f06111a6565b6040516101fd9190612c5c565b60405180910390f35b34801561021257600080fd5b5061021b6111ed565b005b34801561022957600080fd5b50610244600480360381019061023f9190612c20565b611201565b005b34801561025257600080fd5b5061025b611646565b6040516102689190612e37565b60405180910390f35b61028b60048036038101906102869190612e52565b61166f565b005b34801561029957600080fd5b506102b460048036038101906102af9190612c20565b611cde565b005b3480156102c257600080fd5b506102dd60048036038101906102d89190612ebe565b6120b9565b6040516102ea9190612f06565b60405180910390f35b3480156102ff57600080fd5b5061031a60048036038101906103159190612dc1565b6120d9565b005b61033660048036038101906103319190612c20565b6125c6565b005b34801561034457600080fd5b5061035f600480360381019061035a9190612ebe565b6129a1565b60405161036c9190612f06565b60405180910390f35b34801561038157600080fd5b5061039c60048036038101906103979190612ebe565b6129c1565b005b6000807f00000000000000000000000000000000000000000000000000000000000000009050600460008273ffffffffffffffffffffffffffffffffffffffff16636352211e866040518263ffffffff1660e01b81526004016104019190612c5c565b602060405180830381865afa15801561041e573d6000803e3d6000fd5b505050506040513d601f19601f820116820180604052508101906104429190612f36565b73ffffffffffffffffffffffffffffffffffffffff1673ffffffffffffffffffffffffffffffffffffffff16815260200190815260200160002060009054906101000a900460ff1615806105595750600560008273ffffffffffffffffffffffffffffffffffffffff1663c2f1f14a866040518263ffffffff1660e01b81526004016104ce9190612c5c565b602060405180830381865afa1580156104eb573d6000803e3d6000fd5b505050506040513d601f19601f8201168201806040525081019061050f9190612f36565b73ffffffffffffffffffffffffffffffffffffffff1673ffffffffffffffffffffffffffffffffffffffff16815260200190815260200160002060009054906101000a900460ff16155b15610590576040517fbba62a4800000000000000000000000000000000000000000000000000000000815260040160405180910390fd5b600073ffffffffffffffffffffffffffffffffffffffff168173ffffffffffffffffffffffffffffffffffffffff1663c2f1f14a856040518263ffffffff1660e01b81526004016105e19190612c5c565b602060405180830381865afa1580156105fe573d6000803e3d6000fd5b505050506040513d601f19601f820116820180604052508101906106229190612f36565b73ffffffffffffffffffffffffffffffffffffffff160361066f576040517f2a43c14a00000000000000000000000000000000000000000000000000000000815260040160405180910390fd5b600460008273ffffffffffffffffffffffffffffffffffffffff16636352211e866040518263ffffffff1660e01b81526004016106ac9190612c5c565b602060405180830381865afa1580156106c9573d6000803e3d6000fd5b505050506040513d601f19601f820116820180604052508101906106ed9190612f36565b73ffffffffffffffffffffffffffffffffffffffff1673ffffffffffffffffffffffffffffffffffffffff16815260200190815260200160002060009054906101000a900460ff1680156108035750600560008273ffffffffffffffffffffffffffffffffffffffff1663c2f1f14a866040518263ffffffff1660e01b81526004016107799190612c5c565b602060405180830381865afa158015610796573d6000803e3d6000fd5b505050506040513d601f19601f820116820180604052508101906107ba9190612f36565b73ffffffffffffffffffffffffffffffffffffffff1673ffffffffffffffffffffffffffffffffffffffff16815260200190815260200160002060009054906101000a900460ff165b156108da576006600084815260200190815260200160002060008273ffffffffffffffffffffffffffffffffffffffff1663c2f1f14a866040518263ffffffff1660e01b81526004016108569190612c5c565b602060405180830381865afa158015610873573d6000803e3d6000fd5b505050506040513d601f19601f820116820180604052508101906108979190612f36565b73ffffffffffffffffffffffffffffffffffffffff1673ffffffffffffffffffffffffffffffffffffffff168152602001908152602001600020549150506108e0565b60009150505b919050565b6108ed612b8e565b600160008381526020019081526020016000206040518060a001604052908160008201548152602001600182015481526020016002820160009054906101000a900473ffffffffffffffffffffffffffffffffffffffff1673ffffffffffffffffffffffffffffffffffffffff1673ffffffffffffffffffffffffffffffffffffffff168152602001600382015481526020016004820160009054906101000a900460ff1660018111156109a4576109a3612cc7565b5b60018111156109b6576109b5612cc7565b5b815250509050919050565b836000600160008381526020019081526020016000206040518060a001604052908160008201548152602001600182015481526020016002820160009054906101000a900473ffffffffffffffffffffffffffffffffffffffff1673ffffffffffffffffffffffffffffffffffffffff1673ffffffffffffffffffffffffffffffffffffffff168152602001600382015481526020016004820160009054906101000a900460ff166001811115610a7b57610a7a612cc7565b5b6001811115610a8d57610a8c612cc7565b5b8152505090506000816000015103610ad1576040517fccd5736900000000000000000000000000000000000000000000000000000000815260040160405180910390fd5b853360007f0000000000000000000000000000000000000000000000000000000000000000905060008173ffffffffffffffffffffffffffffffffffffffff16636352211e856040518263ffffffff1660e01b8152600401610b339190612c5c565b602060405180830381865afa158015610b50573d6000803e3d6000fd5b505050506040513d601f19601f82011682018060405250810190610b749190612f36565b90508273ffffffffffffffffffffffffffffffffffffffff168173ffffffffffffffffffffffffffffffffffffffff1614610bdb576040517f11c6676e00000000000000000000000000000000000000000000000000000000815260040160405180910390fd5b60008911610c15576040517fe1abbfc500000000000000000000000000000000000000000000000000000000815260040160405180910390fd5b6000600160008c8152602001908152602001600020905060006001811115610c4057610c3f612cc7565b5b8160040160009054906101000a900460ff166001811115610c6457610c63612cc7565b5b03610c9b576040517f0bda4bfb00000000000000000000000000000000000000000000000000000000815260040160405180910390fd5b8981600001819055508881600101819055508781600301819055507fe5a08ff871a023f2096d7036c02a9fe40f22f30ad5f3c0ea560c7687f8009f0c8b8b8b8b33604051610ced959493929190612f63565b60405180910390a15050505050505050505050565b803360007f0000000000000000000000000000000000000000000000000000000000000000905060008173ffffffffffffffffffffffffffffffffffffffff16636352211e856040518263ffffffff1660e01b8152600401610d649190612c5c565b602060405180830381865afa158015610d81573d6000803e3d6000fd5b505050506040513d601f19601f82011682018060405250810190610da59190612f36565b90508273ffffffffffffffffffffffffffffffffffffffff168173ffffffffffffffffffffffffffffffffffffffff1614610e0c576040517f11c6676e00000000000000000000000000000000000000000000000000000000815260040160405180910390fd5b6000600160008781526020019081526020016000206040518060a001604052908160008201548152602001600182015481526020016002820160009054906101000a900473ffffffffffffffffffffffffffffffffffffffff1673ffffffffffffffffffffffffffffffffffffffff1673ffffffffffffffffffffffffffffffffffffffff168152602001600382015481526020016004820160009054906101000a900460ff166001811115610ec557610ec4612cc7565b5b6001811115610ed757610ed6612cc7565b5b81525050905060006001811115610ef157610ef0612cc7565b5b81608001516001811115610f0857610f07612cc7565b5b03610f3f576040517f0bda4bfb00000000000000000000000000000000000000000000000000000000815260040160405180910390fd5b6001600087815260200190815260200160002060008082016000905560018201600090556002820160006101000a81549073ffffffffffffffffffffffffffffffffffffffff021916905560038201600090556004820160006101000a81549060ff021916905550503373ffffffffffffffffffffffffffffffffffffffff16867f42ecbced995207d8c41eb254db18cd773efa0feded7415077de97636bedde20b60405160405180910390a3505050505050565b6000600260003373ffffffffffffffffffffffffffffffffffffffff1673ffffffffffffffffffffffffffffffffffffffff168152602001908152602001600020540361106d576040517f8e8db70c00000000000000000000000000000000000000000000000000000000815260040160405180910390fd5b6000600260003373ffffffffffffffffffffffffffffffffffffffff1673ffffffffffffffffffffffffffffffffffffffff1681526020019081526020016000205490506000600260003373ffffffffffffffffffffffffffffffffffffffff1673ffffffffffffffffffffffffffffffffffffffff1681526020019081526020016000208190555060003373ffffffffffffffffffffffffffffffffffffffff168260405161111c90612fe7565b60006040518083038185875af1925050503d8060008114611159576040519150601f19603f3d011682016040523d82523d6000602084013e61115e565b606091505b50509050806111a2576040517f08c379a000000000000000000000000000000000000000000000000000000000815260040161119990613059565b60405180910390fd5b5050565b6000600260003373ffffffffffffffffffffffffffffffffffffffff1673ffffffffffffffffffffffffffffffffffffffff16815260200190815260200160002054905090565b6111f5612a44565b6111ff6000612ac2565b565b803360007f0000000000000000000000000000000000000000000000000000000000000000905060008173ffffffffffffffffffffffffffffffffffffffff16636352211e856040518263ffffffff1660e01b81526004016112639190612c5c565b602060405180830381865afa158015611280573d6000803e3d6000fd5b505050506040513d601f19601f820116820180604052508101906112a49190612f36565b90508273ffffffffffffffffffffffffffffffffffffffff168173ffffffffffffffffffffffffffffffffffffffff161461130b576040517f11c6676e00000000000000000000000000000000000000000000000000000000815260040160405180910390fd5b60007f0000000000000000000000000000000000000000000000000000000000000000905060011515600460003373ffffffffffffffffffffffffffffffffffffffff1673ffffffffffffffffffffffffffffffffffffffff16815260200190815260200160002060009054906101000a900460ff161515036113ba576040517f4dfc7c7a00000000000000000000000000000000000000000000000000000000815260040160405180910390fd5b60008173ffffffffffffffffffffffffffffffffffffffff1663c2f1f14a886040518263ffffffff1660e01b81526004016113f59190612c5c565b602060405180830381865afa158015611412573d6000803e3d6000fd5b505050506040513d601f19601f820116820180604052508101906114369190612f36565b9050600073ffffffffffffffffffffffffffffffffffffffff168173ffffffffffffffffffffffffffffffffffffffff16141580156114c5575060011515600560008373ffffffffffffffffffffffffffffffffffffffff1673ffffffffffffffffffffffffffffffffffffffff16815260200190815260200160002060009054906101000a900460ff161515145b156115e5576000610e107f0000000000000000000000000000000000000000000000000000000000000000600360003373ffffffffffffffffffffffffffffffffffffffff1673ffffffffffffffffffffffffffffffffffffffff16815260200190815260200160002060008573ffffffffffffffffffffffffffffffffffffffff1673ffffffffffffffffffffffffffffffffffffffff168152602001908152602001600020544261157891906130a8565b61158291906130dc565b61158c919061314d565b905080600660008a815260200190815260200160002060008473ffffffffffffffffffffffffffffffffffffffff1673ffffffffffffffffffffffffffffffffffffffff16815260200190815260200160002081905550505b6001600460003373ffffffffffffffffffffffffffffffffffffffff1673ffffffffffffffffffffffffffffffffffffffff16815260200190815260200160002060006101000a81548160ff02191690831515021790555050505050505050565b60008060009054906101000a900473ffffffffffffffffffffffffffffffffffffffff16905090565b816000600160008381526020019081526020016000206040518060a001604052908160008201548152602001600182015481526020016002820160009054906101000a900473ffffffffffffffffffffffffffffffffffffffff1673ffffffffffffffffffffffffffffffffffffffff1673ffffffffffffffffffffffffffffffffffffffff168152602001600382015481526020016004820160009054906101000a900460ff16600181111561172957611728612cc7565b5b600181111561173b5761173a612cc7565b5b815250509050600081600001510361177f576040517fccd5736900000000000000000000000000000000000000000000000000000000815260040160405180910390fd5b83836000600160008481526020019081526020016000206040518060a001604052908160008201548152602001600182015481526020016002820160009054906101000a900473ffffffffffffffffffffffffffffffffffffffff1673ffffffffffffffffffffffffffffffffffffffff1673ffffffffffffffffffffffffffffffffffffffff168152602001600382015481526020016004820160009054906101000a900460ff16600181111561183a57611839612cc7565b5b600181111561184c5761184b612cc7565b5b8152505090506000816060015142611864919061317e565b9050828111156118a0576040517f77dadc4800000000000000000000000000000000000000000000000000000000815260040160405180910390fd5b60007f0000000000000000000000000000000000000000000000000000000000000000905060008173ffffffffffffffffffffffffffffffffffffffff1663c2f1f14a8b6040518263ffffffff1660e01b81526004016119009190612c5c565b602060405180830381865afa15801561191d573d6000803e3d6000fd5b505050506040513d601f19601f820116820180604052508101906119419190612f36565b90506000600160008c8152602001908152602001600020905060008160040160009054906101000a900460ff169050600073ffffffffffffffffffffffffffffffffffffffff168373ffffffffffffffffffffffffffffffffffffffff161415806119d05750600060018111156119bb576119ba612cc7565b5b8160018111156119ce576119cd612cc7565b5b145b15611a07576040517fe06c954400000000000000000000000000000000000000000000000000000000815260040160405180910390fd5b8373ffffffffffffffffffffffffffffffffffffffff16631b8a910d8d338e6040518463ffffffff1660e01b8152600401611a44939291906131b2565b600060405180830381600087803b158015611a5e57600080fd5b505af1158015611a72573d6000803e3d6000fd5b5050505042600360008460020160009054906101000a900473ffffffffffffffffffffffffffffffffffffffff1673ffffffffffffffffffffffffffffffffffffffff1673ffffffffffffffffffffffffffffffffffffffff16815260200190815260200160002060003373ffffffffffffffffffffffffffffffffffffffff1673ffffffffffffffffffffffffffffffffffffffff1681526020019081526020016000208190555060008260040160006101000a81548160ff02191690836001811115611b4357611b42612cc7565b5b02179055506000600460008460020160009054906101000a900473ffffffffffffffffffffffffffffffffffffffff1673ffffffffffffffffffffffffffffffffffffffff1673ffffffffffffffffffffffffffffffffffffffff16815260200190815260200160002060006101000a81548160ff0219169083151502179055506000600560003373ffffffffffffffffffffffffffffffffffffffff1673ffffffffffffffffffffffffffffffffffffffff16815260200190815260200160002060006101000a81548160ff0219169083151502179055508b7fa5189eef4bab8fbfd79d6b1fc59e54a2ec64489426e24f0515d950debcf6cece338d604051611c4e9291906131e9565b60405180910390a234600260008460020160009054906101000a900473ffffffffffffffffffffffffffffffffffffffff1673ffffffffffffffffffffffffffffffffffffffff1673ffffffffffffffffffffffffffffffffffffffff1681526020019081526020016000206000828254611cc9919061317e565b92505081905550505050505050505050505050565b60007f000000000000000000000000000000000000000000000000000000000000000090503373ffffffffffffffffffffffffffffffffffffffff168173ffffffffffffffffffffffffffffffffffffffff1663c2f1f14a846040518263ffffffff1660e01b8152600401611d539190612c5c565b602060405180830381865afa158015611d70573d6000803e3d6000fd5b505050506040513d601f19601f82011682018060405250810190611d949190612f36565b73ffffffffffffffffffffffffffffffffffffffff1614611de1576040517f87e06ee500000000000000000000000000000000000000000000000000000000815260040160405180910390fd5b60011515600560003373ffffffffffffffffffffffffffffffffffffffff1673ffffffffffffffffffffffffffffffffffffffff16815260200190815260200160002060009054906101000a900460ff16151503611e6b576040517f4dfc7c7a00000000000000000000000000000000000000000000000000000000815260040160405180910390fd5b60008173ffffffffffffffffffffffffffffffffffffffff16636352211e846040518263ffffffff1660e01b8152600401611ea69190612c5c565b602060405180830381865afa158015611ec3573d6000803e3d6000fd5b505050506040513d601f19601f82011682018060405250810190611ee79190612f36565b905060011515600460008373ffffffffffffffffffffffffffffffffffffffff1673ffffffffffffffffffffffffffffffffffffffff16815260200190815260200160002060009054906101000a900460ff1615150361205c576000610e107f0000000000000000000000000000000000000000000000000000000000000000600360008573ffffffffffffffffffffffffffffffffffffffff1673ffffffffffffffffffffffffffffffffffffffff16815260200190815260200160002060003373ffffffffffffffffffffffffffffffffffffffff1673ffffffffffffffffffffffffffffffffffffffff1681526020019081526020016000205442611fef91906130a8565b611ff991906130dc565b612003919061314d565b9050806006600086815260200190815260200160002060003373ffffffffffffffffffffffffffffffffffffffff1673ffffffffffffffffffffffffffffffffffffffff16815260200190815260200160002081905550505b6001600560003373ffffffffffffffffffffffffffffffffffffffff1673ffffffffffffffffffffffffffffffffffffffff16815260200190815260200160002060006101000a81548160ff021916908315150217905550505050565b60046020528060005260406000206000915054906101000a900460ff1681565b836000600160008381526020019081526020016000206040518060a001604052908160008201548152602001600182015481526020016002820160009054906101000a900473ffffffffffffffffffffffffffffffffffffffff1673ffffffffffffffffffffffffffffffffffffffff1673ffffffffffffffffffffffffffffffffffffffff168152602001600382015481526020016004820160009054906101000a900460ff16600181111561219357612192612cc7565b5b60018111156121a5576121a4612cc7565b5b8152505090506000816000015111156121ea576040517f5d64530d00000000000000000000000000000000000000000000000000000000815260040160405180910390fd5b853360007f0000000000000000000000000000000000000000000000000000000000000000905060008173ffffffffffffffffffffffffffffffffffffffff16636352211e856040518263ffffffff1660e01b815260040161224c9190612c5c565b602060405180830381865afa158015612269573d6000803e3d6000fd5b505050506040513d601f19601f8201168201806040525081019061228d9190612f36565b90508273ffffffffffffffffffffffffffffffffffffffff168173ffffffffffffffffffffffffffffffffffffffff16146122f4576040517f11c6676e00000000000000000000000000000000000000000000000000000000815260040160405180910390fd5b6000891161232e576040517fe1abbfc500000000000000000000000000000000000000000000000000000000815260040160405180910390fd5b60007f000000000000000000000000000000000000000000000000000000000000000090503073ffffffffffffffffffffffffffffffffffffffff168173ffffffffffffffffffffffffffffffffffffffff1663081812fc8d6040518263ffffffff1660e01b81526004016123a39190612c5c565b602060405180830381865afa1580156123c0573d6000803e3d6000fd5b505050506040513d601f19601f820116820180604052508101906123e49190612f36565b73ffffffffffffffffffffffffffffffffffffffff1614612431576040517fbd99170400000000000000000000000000000000000000000000000000000000815260040160405180910390fd5b60006040518060a001604052808c81526020018b81526020013373ffffffffffffffffffffffffffffffffffffffff1681526020018a815260200160018081111561247f5761247e612cc7565b5b815250905080600160008e8152602001908152602001600020600082015181600001556020820151816001015560408201518160020160006101000a81548173ffffffffffffffffffffffffffffffffffffffff021916908373ffffffffffffffffffffffffffffffffffffffff1602179055506060820151816003015560808201518160040160006101000a81548160ff0219169083600181111561252857612527612cc7565b5b02179055509050508b7f000000000000000000000000000000000000000000000000000000000000000073ffffffffffffffffffffffffffffffffffffffff163373ffffffffffffffffffffffffffffffffffffffff167f91623fbd639d8d503fe2e77aab334b032313685f1b28c84d838c4b647b1f5d9d8e8d6040516125b0929190613212565b60405180910390a4505050505050505050505050565b600060016000838152602001908152602001600020905060007f0000000000000000000000000000000000000000000000000000000000000000905060008173ffffffffffffffffffffffffffffffffffffffff1663c2f1f14a856040518263ffffffff1660e01b815260040161263d9190612c5c565b602060405180830381865afa15801561265a573d6000803e3d6000fd5b505050506040513d601f19601f8201168201806040525081019061267e9190612f36565b90503373ffffffffffffffffffffffffffffffffffffffff168173ffffffffffffffffffffffffffffffffffffffff16146126e5576040517f87e06ee500000000000000000000000000000000000000000000000000000000815260040160405180910390fd5b6006600085815260200190815260200160002060008273ffffffffffffffffffffffffffffffffffffffff1673ffffffffffffffffffffffffffffffffffffffff1681526020019081526020016000206000905534600260008473ffffffffffffffffffffffffffffffffffffffff16636352211e886040518263ffffffff1660e01b81526004016127779190612c5c565b602060405180830381865afa158015612794573d6000803e3d6000fd5b505050506040513d601f19601f820116820180604052508101906127b89190612f36565b73ffffffffffffffffffffffffffffffffffffffff1673ffffffffffffffffffffffffffffffffffffffff1681526020019081526020016000206000828254612801919061317e565b9250508190555060018360040160006101000a81548160ff021916908360018111156128305761282f612cc7565b5b0217905550600560008273ffffffffffffffffffffffffffffffffffffffff1673ffffffffffffffffffffffffffffffffffffffff16815260200190815260200160002060006101000a81549060ff0219169055600460008373ffffffffffffffffffffffffffffffffffffffff16636352211e876040518263ffffffff1660e01b81526004016128c19190612c5c565b602060405180830381865afa1580156128de573d6000803e3d6000fd5b505050506040513d601f19601f820116820180604052508101906129029190612f36565b73ffffffffffffffffffffffffffffffffffffffff1673ffffffffffffffffffffffffffffffffffffffff16815260200190815260200160002060006101000a81549060ff02191690553373ffffffffffffffffffffffffffffffffffffffff16847f3e4519a8b672b25c11e6fa28b3b3a774a2fc58f7bcbd5765075af8d5dbf507a9346040516129939190612c5c565b60405180910390a350505050565b60056020528060005260406000206000915054906101000a900460ff1681565b6129c9612a44565b600073ffffffffffffffffffffffffffffffffffffffff168173ffffffffffffffffffffffffffffffffffffffff1603612a38576040517f08c379a0000000000000000000000000000000000000000000000000000000008152600401612a2f906132ad565b60405180910390fd5b612a4181612ac2565b50565b612a4c612b86565b73ffffffffffffffffffffffffffffffffffffffff16612a6a611646565b73ffffffffffffffffffffffffffffffffffffffff1614612ac0576040517f08c379a0000000000000000000000000000000000000000000000000000000008152600401612ab790613319565b60405180910390fd5b565b60008060009054906101000a900473ffffffffffffffffffffffffffffffffffffffff169050816000806101000a81548173ffffffffffffffffffffffffffffffffffffffff021916908373ffffffffffffffffffffffffffffffffffffffff1602179055508173ffffffffffffffffffffffffffffffffffffffff168173ffffffffffffffffffffffffffffffffffffffff167f8be0079c531659141344cd1fd0a4f28419497f9722a3daafe3b4186f6b6457e060405160405180910390a35050565b600033905090565b6040518060a001604052806000815260200160008152602001600073ffffffffffffffffffffffffffffffffffffffff1681526020016000815260200160006001811115612bdf57612bde612cc7565b5b81525090565b600080fd5b6000819050919050565b612bfd81612bea565b8114612c0857600080fd5b50565b600081359050612c1a81612bf4565b92915050565b600060208284031215612c3657612c35612be5565b5b6000612c4484828501612c0b565b91505092915050565b612c5681612bea565b82525050565b6000602082019050612c716000830184612c4d565b92915050565b612c8081612bea565b82525050565b600073ffffffffffffffffffffffffffffffffffffffff82169050919050565b6000612cb182612c86565b9050919050565b612cc181612ca6565b82525050565b7f4e487b7100000000000000000000000000000000000000000000000000000000600052602160045260246000fd5b60028110612d0757612d06612cc7565b5b50565b6000819050612d1882612cf6565b919050565b6000612d2882612d0a565b9050919050565b612d3881612d1d565b82525050565b60a082016000820151612d546000850182612c77565b506020820151612d676020850182612c77565b506040820151612d7a6040850182612cb8565b506060820151612d8d6060850182612c77565b506080820151612da06080850182612d2f565b50505050565b600060a082019050612dbb6000830184612d3e565b92915050565b60008060008060808587031215612ddb57612dda612be5565b5b6000612de987828801612c0b565b9450506020612dfa87828801612c0b565b9350506040612e0b87828801612c0b565b9250506060612e1c87828801612c0b565b91505092959194509250565b612e3181612ca6565b82525050565b6000602082019050612e4c6000830184612e28565b92915050565b60008060408385031215612e6957612e68612be5565b5b6000612e7785828601612c0b565b9250506020612e8885828601612c0b565b9150509250929050565b612e9b81612ca6565b8114612ea657600080fd5b50565b600081359050612eb881612e92565b92915050565b600060208284031215612ed457612ed3612be5565b5b6000612ee284828501612ea9565b91505092915050565b60008115159050919050565b612f0081612eeb565b82525050565b6000602082019050612f1b6000830184612ef7565b92915050565b600081519050612f3081612e92565b92915050565b600060208284031215612f4c57612f4b612be5565b5b6000612f5a84828501612f21565b91505092915050565b600060a082019050612f786000830188612c4d565b612f856020830187612c4d565b612f926040830186612c4d565b612f9f6060830185612c4d565b612fac6080830184612e28565b9695505050505050565b600081905092915050565b50565b6000612fd1600083612fb6565b9150612fdc82612fc1565b600082019050919050565b6000612ff282612fc4565b9150819050919050565b600082825260208201905092915050565b7f456c7365207472616e73616374696f6e206661696c6564000000000000000000600082015250565b6000613043601783612ffc565b915061304e8261300d565b602082019050919050565b6000602082019050818103600083015261307281613036565b9050919050565b7f4e487b7100000000000000000000000000000000000000000000000000000000600052601160045260246000fd5b60006130b382612bea565b91506130be83612bea565b92508282039050818111156130d6576130d5613079565b5b92915050565b60006130e782612bea565b91506130f283612bea565b925082820261310081612bea565b9150828204841483151761311757613116613079565b5b5092915050565b7f4e487b7100000000000000000000000000000000000000000000000000000000600052601260045260246000fd5b600061315882612bea565b915061316383612bea565b9250826131735761317261311e565b5b828204905092915050565b600061318982612bea565b915061319483612bea565b92508282019050808211156131ac576131ab613079565b5b92915050565b60006060820190506131c76000830186612c4d565b6131d46020830185612e28565b6131e16040830184612c4d565b949350505050565b60006040820190506131fe6000830185612e28565b61320b6020830184612c4d565b9392505050565b60006040820190506132276000830185612c4d565b6132346020830184612c4d565b9392505050565b7f4f776e61626c653a206e6577206f776e657220697320746865207a65726f206160008201527f6464726573730000000000000000000000000000000000000000000000000000602082015250565b6000613297602683612ffc565b91506132a28261323b565b604082019050919050565b600060208201905081810360008301526132c68161328a565b9050919050565b7f4f776e61626c653a2063616c6c6572206973206e6f7420746865206f776e6572600082015250565b6000613303602083612ffc565b915061330e826132cd565b602082019050919050565b60006020820190508181036000830152613332816132f6565b905091905056fea2646970667358221220242999497b31e334e7b0a34dff44e52764867258912408d80a6c02d84fa2059c64736f6c63430008130033",
  "devdoc": {
    "kind": "dev",
    "methods": {
      "owner()": {
        "details": "Returns the address of the current owner."
      },
      "renounceOwnership()": {
        "details": "Leaves the contract without owner. It will not be possible to call `onlyOwner` functions. Can only be called by the current owner. NOTE: Renouncing ownership will leave the contract without an owner, thereby disabling any functionality that is only available to the owner."
      },
      "transferOwnership(address)": {
        "details": "Transfers ownership of the contract to a new account (`newOwner`). Can only be called by the current owner."
      }
    },
    "version": 1
  },
  "userdoc": {
    "kind": "user",
    "methods": {},
    "version": 1
  },
  "storageLayout": {
    "storage": [
      {
        "astId": 7,
        "contract": "contracts/Escrow.sol:Escrow",
        "label": "_owner",
        "offset": 0,
        "slot": "0",
        "type": "t_address"
      },
      {
        "astId": 3229,
        "contract": "contracts/Escrow.sol:Escrow",
        "label": "s_listings",
        "offset": 0,
        "slot": "1",
        "type": "t_mapping(t_uint256,t_struct(Listing)3220_storage)"
      },
      {
        "astId": 3233,
        "contract": "contracts/Escrow.sol:Escrow",
        "label": "s_balances",
        "offset": 0,
        "slot": "2",
        "type": "t_mapping(t_address,t_uint256)"
      },
      {
        "astId": 3239,
        "contract": "contracts/Escrow.sol:Escrow",
        "label": "s_rentals",
        "offset": 0,
        "slot": "3",
        "type": "t_mapping(t_address,t_mapping(t_address,t_uint256))"
      },
      {
        "astId": 3243,
        "contract": "contracts/Escrow.sol:Escrow",
        "label": "s_ownerStatus",
        "offset": 0,
        "slot": "4",
        "type": "t_mapping(t_address,t_bool)"
      },
      {
        "astId": 3247,
        "contract": "contracts/Escrow.sol:Escrow",
        "label": "s_borrowerStatus",
        "offset": 0,
        "slot": "5",
        "type": "t_mapping(t_address,t_bool)"
      },
      {
        "astId": 3253,
        "contract": "contracts/Escrow.sol:Escrow",
        "label": "s_fines",
        "offset": 0,
        "slot": "6",
        "type": "t_mapping(t_uint256,t_mapping(t_address,t_uint256))"
      }
    ],
    "types": {
      "t_address": {
        "encoding": "inplace",
        "label": "address",
        "numberOfBytes": "20"
      },
      "t_bool": {
        "encoding": "inplace",
        "label": "bool",
        "numberOfBytes": "1"
      },
      "t_enum(Status)3208": {
        "encoding": "inplace",
        "label": "enum Escrow.Status",
        "numberOfBytes": "1"
      },
      "t_mapping(t_address,t_bool)": {
        "encoding": "mapping",
        "key": "t_address",
        "label": "mapping(address => bool)",
        "numberOfBytes": "32",
        "value": "t_bool"
      },
      "t_mapping(t_address,t_mapping(t_address,t_uint256))": {
        "encoding": "mapping",
        "key": "t_address",
        "label": "mapping(address => mapping(address => uint256))",
        "numberOfBytes": "32",
        "value": "t_mapping(t_address,t_uint256)"
      },
      "t_mapping(t_address,t_uint256)": {
        "encoding": "mapping",
        "key": "t_address",
        "label": "mapping(address => uint256)",
        "numberOfBytes": "32",
        "value": "t_uint256"
      },
      "t_mapping(t_uint256,t_mapping(t_address,t_uint256))": {
        "encoding": "mapping",
        "key": "t_uint256",
        "label": "mapping(uint256 => mapping(address => uint256))",
        "numberOfBytes": "32",
        "value": "t_mapping(t_address,t_uint256)"
      },
      "t_mapping(t_uint256,t_struct(Listing)3220_storage)": {
        "encoding": "mapping",
        "key": "t_uint256",
        "label": "mapping(uint256 => struct Escrow.Listing)",
        "numberOfBytes": "32",
        "value": "t_struct(Listing)3220_storage"
      },
      "t_struct(Listing)3220_storage": {
        "encoding": "inplace",
        "label": "struct Escrow.Listing",
        "members": [
          {
            "astId": 3210,
            "contract": "contracts/Escrow.sol:Escrow",
            "label": "hourlyPrice",
            "offset": 0,
            "slot": "0",
            "type": "t_uint256"
          },
          {
            "astId": 3212,
            "contract": "contracts/Escrow.sol:Escrow",
            "label": "maxDays",
            "offset": 0,
            "slot": "1",
            "type": "t_uint256"
          },
          {
            "astId": 3214,
            "contract": "contracts/Escrow.sol:Escrow",
            "label": "owner",
            "offset": 0,
            "slot": "2",
            "type": "t_address"
          },
          {
            "astId": 3216,
            "contract": "contracts/Escrow.sol:Escrow",
            "label": "advanceTime",
            "offset": 0,
            "slot": "3",
            "type": "t_uint256"
          },
          {
            "astId": 3219,
            "contract": "contracts/Escrow.sol:Escrow",
            "label": "status",
            "offset": 0,
            "slot": "4",
            "type": "t_enum(Status)3208"
          }
        ],
        "numberOfBytes": "160"
      },
      "t_uint256": {
        "encoding": "inplace",
        "label": "uint256",
        "numberOfBytes": "32"
      }
    }
  }
}